:100000000C945B000C9481000C9481000C94810092
:100010000C9481000C9481000C9481000C9481005C
:100020000C9481000C9481000C9481000C9481004C
:100030000C9481000C9481000C9481000C9481003C
:100040000C949F090C9481000C94EE0B0C9481008D
:100050000C9481000C9481000C9481000C9481001C
:100060000C9481000C9481009E090000000700029E
:10007000010000030406000000000000000001026F
:100080000408102040800102040810200102040826
:100090001020040404040404040402020202020204
:1000A0000303030303030000232629000025282B54
:1000B000000024272A0011241FBECFEFD4E0DEBFAA
:1000C000CDBF11E0A0E0B1E0ECEDFCE102C0059095
:1000D0000D92A031B107D9F711E0A0E1B1E001C064
:1000E0001D92AD3BB107E1F710E0CAE6D0E004C0D5
:1000F0002297FE010E946A0EC836D107C9F70C94F8
:10010000C3080C94000061E0809108010E94C20ABB
:1001100040E052EC61E070E084E391E00E94D0089E
:1001200061E0809108010E94290B6AE070E080E0A4
:1001300090E00E94DC0960E0809108010E94290B98
:1001400060ED77E080E090E00E94DC0985E00E94AD
:10015000500A0E94000D61E0809106010E94C20ACF
:10016000089561E0809106010E94290B089560E0E6
:10017000809106010E94290B089580E00E94500A98
:10018000909323018093220181E00E94500A909372
:1001900021018093200182E00E94500A9C018091FD
:1001A00022019091230164E070E00E94040E70939C
:1001B000230160932201809120019091210164E04C
:1001C00070E00E94040E7093210160932001C90128
:1001D00064E070E00E94040E70931F0160931E01A2
:1001E000089580911C0190911D01813A9105C4F4FC
:1001F0008091220190912301843691058CF0813AFF
:10020000910574F48091200190912101843691052B
:100210003CF080911E0190911F01813A910524F0DC
:1002200081E080932D010895843691051CF481E0CE
:1002300080932D01089580911C0190911D01843CB3
:100240009105BCF480912201909123018C3391059A
:1002500084F0843C91056CF48091200190912101FF
:10026000CC973CF080911E0190911F01843C910538
:1002700024F081E080932E010895CC971CF481E056
:1002800080932E01089510921701109216011FC03D
:10029000809104010E946E0A60E070E0809102018A
:1002A0000E946E0A60E070E0809100010E946E0A78
:1002B00061E070E080E090E00E94DC09809116012E
:1002C0009091170101969093170180931601609108
:1002D0001601709117016F3F7105D1F2CCF21092A7
:1002E00015011092140123C06FEF70E0809104019A
:1002F0000E946E0A60E070E0809100010E946E0A28
:100300006091140170911501809102010E946E0AA2
:1003100061E070E080E090E00E94DC0980911401CF
:10032000909115010196909315018093140180918D
:100330001401909115018F3F9105B1F2ACF28FEF4E
:1003400090E01FC06FEF70E0809102010E946E0A82
:1003500060E070E0809100010E946E0A60911601D9
:1003600070911701809104010E946E0A61E070E0B3
:1003700080E090E00E94DC098091160190911701C5
:100380000197909317018093160180911601909127
:10039000170197FFD7CF109213011092120123C0BB
:1003A0006FEF70E0809102010E946E0A60E070E0E1
:1003B000809104010E946E0A6091120170911301F4
:1003C000809100010E946E0A61E070E080E090E0A0
:1003D0000E94DC0980911201909113010196909383
:1003E00013018093120180911201909113018F3FAC
:1003F0009105B1F2ACF28FEF90E01FC06FEF70E0AB
:10040000809100010E946E0A60E070E0809104011A
:100410000E946E0A60911401709115018091020191
:100420000E946E0A61E070E080E090E00E94DC09CA
:10043000809114019091150101979093150180937B
:100440001401809114019091150197FFD7CF10925C
:1004500017011092160123C06FEF70E08091000128
:100460000E946E0A60E070E0809102010E946E0AB4
:100470006091160170911701809104010E946E0A2B
:1004800061E070E080E090E00E94DC09809116015C
:100490009091170101969093170180931601809116
:1004A0001601909117018F3F9105B1F2ACF21092B5
:1004B00015011092140123C06FEF70E080910001CC
:1004C0000E946E0A6FEF70E0809104010E946E0A34
:1004D0006091140170911501809102010E946E0AD1
:1004E00061E070E080E090E00E94DC0980911401FE
:1004F00090911501019690931501809314018091BC
:100500001401909115018F3F9105B1F2ACF26FEF9C
:1005100070E0809104010E946E0A6FEF70E080919C
:1005200002010E946E0A6FEF70E0809100010E944C
:100530006E0A61E070E080E090E00E94DC090895BE
:100540006DE670E0809104010E946E0A68EC70E034
:10055000809102010E946E0A6FEB70E080910001B1
:100560000E946E0A08956AEC70E0809104010E9476
:100570006E0A6BED70E0809102010E946E0A6AE2E1
:1005800070E0809100010E946E0A089567EB70E0B0
:10059000809104010E946E0A64E270E08091020181
:1005A0000E946E0A67E670E0809100010E946E0A68
:1005B00008956FEF70E0809104010E946E0A6FEF62
:1005C00070E0809102010E946E0A6FEF70E08091EE
:1005D00000010E946E0A08956FEF70E0809104019F
:1005E0000E946E0A6FEF70E0809102010E946E0A15
:1005F0006FEF70E0809100010E946E0A089560E044
:1006000070E0809104010E946E0A60E070E08091C9
:1006100002010E946E0A60E070E0809100010E9479
:100620006E0A089560EA70E0809104010E946E0AEB
:1006300060E270E0809102010E946E0A60EF70E05B
:10064000809100010E946E0A089560E070E0809140
:1006500004010E946E0A60E070E0809102010E9435
:100660006E0A6FEF70E0809100010E946E0A08959B
:1006700060E070E0809104010E946E0A6FEF70E00C
:10068000809102010E946E0A60E070E0809100019A
:100690000E946E0A08956FEF70E0809104010E943D
:1006A0006E0A60E070E0809102010E946E0A60E0D4
:1006B00070E0809100010E946E0A089561E08091CF
:1006C00006010E94290B0E944B0368EC70E080E059
:1006D00090E00E94DC0960E0809106010E94290BF5
:1006E0000E94FF0268EC70E080E090E00E94DC096C
:1006F00061E0809106010E94290B0E944B0368EC87
:1007000070E080E090E00E94DC0960E080910601EA
:100710000E94290B0E94FF0268EC70E080E090E0EC
:100720000E94DC0961E0809106010E94290B0E9471
:100730004B0368EC70E080E090E00E94DC0960E030
:10074000809106010E94290B0E94FF0268EC70E074
:1007500080E090E00E94DC0961E0809106010E9447
:10076000290B0E944B0368EC70E080E090E00E944F
:10077000DC0960E0809106010E94290B0E94FF02C3
:10078000089561E0809106010E94290B0E944B03AD
:1007900068EC70E080E090E00E94DC0960E080910D
:1007A00006010E94290B0E94FF0268EC70E080E0C5
:1007B00090E00E94DC0961E0809106010E94290B13
:1007C0000E944B0368EC70E080E090E00E94DC093E
:1007D00060E0809106010E94290B0E94FF0268ECF4
:1007E00070E080E090E00E94DC0961E08091060109
:1007F0000E94290B0E944B0368EC70E080E090E0BF
:100800000E94DC0960E0809106010E94290B0E9491
:10081000FF02089561E0809106010E94290B0E9469
:100820004B0368EC70E080E090E00E94DC0960E03F
:10083000809106010E94290B0E94FF0268EC70E083
:1008400080E090E00E94DC0961E0809106010E9456
:10085000290B0E944B0368EC70E080E090E00E945E
:10086000DC0960E0809106010E94290B0E94FF02D2
:1008700008956FEF70E0809104010E946E0A6FEF9F
:1008800070E0809102010E946E0A60E070E0809149
:1008900000010E946E0A089560E070E080910401FA
:1008A0000E946E0A6FEF70E0809102010E946E0A52
:1008B0006FEF70E0809100010E946E0A089523E0BE
:1008C00030E040E050E061E070E080E090E00E94C5
:1008D000260D609330017093310180933201909323
:1008E000330120913001309131014091320150911A
:1008F00033018091260190912701AA2797FDA095A9
:10090000BA2F281739074A075B07C9F280912401DB
:1009100090912501892B39F421303105410551058C
:10092000E1F40E945F048091300190913101A09127
:100930003201B09133010197A105B10571F40E9414
:100940004C0481E090E0909327018093260160E2BF
:1009500073E080E090E00E94DC098091300190918A
:100960003101A0913201B09133010297A105B10587
:1009700071F40E94390482E090E090932701809303
:10098000260160E273E080E090E00E94DC09809143
:10099000300190913101A0913201B0913301039760
:1009A000A105B10509F48BCF08956FEF70E0809138
:1009B00004010E946E0A69E670E0809102010E94C3
:1009C0006E0A64EB70E0809100010E946E0A089547
:1009D00024E030E040E050E061E070E080E090E052
:1009E0000E94260D60933001709331018093320193
:1009F00090933301209130013091310140913201C7
:100A0000509133018091260190912701AA2797FDEB
:100A1000A095BA2F281739074A075B07C9F28091BA
:100A2000240190912501892B39F4213031054105AC
:100A30005105E1F40E94E804809130019091310168
:100A4000A0913201B09133010197A105B10571F474
:100A50000E944C0481E090E090932701809326014E
:100A600060E273E080E090E00E94DC098091300158
:100A700090913101A0913201B09133010297A1050B
:100A8000B10571F40E94390482E090E0909327014F
:100A90008093260160E273E080E090E00E94DC0930
:100AA0008091300190913101A0913201B0913301D8
:100AB0000397A105B10571F40E94D50483E090E08D
:100AC000909327018093260160E273E080E090E03C
:100AD0000E94DC098091300190913101A091320196
:100AE000B09133010497A105B10509F471CF0895C0
:100AF0006FEF70E0809104010E946E0A65E470E07F
:100B0000809102010E946E0A60E070E08091000115
:100B10000E946E0A089525E030E040E050E061E078
:100B200070E080E090E00E94260D609330017093A9
:100B30003101809332019093330120913001309143
:100B40003101409132015091330180912601909101
:100B50002701AA2797FDA095BA2F281739074A071A
:100B60005B07C9F28091240190912501892B39F40A
:100B70002130310541055105E1F40E948B0580913A
:100B8000300190913101A0913201B0913301019770
:100B9000A105B10571F40E944C0481E090E09093AE
:100BA00027018093260160E273E080E090E00E94DC
:100BB000DC098091300190913101A0913201B09116
:100BC00033010297A105B10571F40E94390482E056
:100BD00090E0909327018093260160E273E080E02B
:100BE00090E00E94DC098091300190913101A09148
:100BF0003201B09133010397A105B10571F40E9450
:100C0000D50483E090E0909327018093260160E271
:100C100073E080E090E00E94DC09809130019091C7
:100C20003101A0913201B09133010497A105B105C2
:100C300071F40E94780584E090E0909327018093FE
:100C4000260160E273E080E090E00E94DC09809180
:100C5000300190913101A0913201B091330105979B
:100C6000A105B10509F457CF08950F931F93CF93B2
:100C7000DF9310922501109224010E94D902109254
:100C80002C0180912A0190912B018130910549F42A
:100C900028E230E040E050E064E170E080E090E085
:100CA00016C08230910549F429E130E040E050E07F
:100CB0006AE070E080E090E00AC0039761F42FE002
:100CC00030E040E050E065E070E080E090E00E94BD
:100CD000260D8B014CC00E94330700E010E047C096
:100CE00010922E010E94BD000E941B0180912E01D6
:100CF000813099F58091280190912901029759F44A
:100D00000E945F04809124019091250101969093A7
:100D10002501809324018091280190912901039756
:100D200059F40E94E80480912401909125010196D4
:100D300090932501809324018091280190912901AD
:100D4000049759F40E948B0580912401909125010C
:100D500001969093250180932401C0912401D091A4
:100D60002501C017D10719F40E94C2078E01809196
:100D70002C01882309F4B4CFDF91CF911F910F91FB
:100D80000895CF93DF9310922D0160ED77E080E01E
:100D900090E00E94DC095EC00E94BD000E94F1004C
:100DA00080912D01813081F482E090E090932901BF
:100DB000809328010E94380360ED77E080E090E0A6
:100DC0000E94DC090E943506219731F70E94FF023C
:100DD0000E94C1030E94D902C0E4DFE10E94BD006D
:100DE0000E94F10080912D01813081F483E090E038
:100DF00090932901809328010E94380360ED77E0E9
:100E000080E090E00E94DC090E943506219731F7CE
:100E10000E94FF020E945E030E94D902C0E4DFE14B
:100E20000E94BD000E94F10080912D01813081F46B
:100E300084E090E090932901809328010E94380378
:100E400060ED77E080E090E00E94DC090E943506CA
:100E5000219731F70E94FF020E940A040E94D902E2
:100E6000C0E4DFE199CFCF93DF9310922D0156C0FC
:100E70000E94BD000E94F10080912D01813081F41B
:100E800081E090E090932B0180932A010E94380327
:100E900060ED77E080E090E00E94DC090E94C106EE
:100EA000219731F70E94A002C0E4DFE10E94BD005B
:100EB0000E94F10080912D01813081F482E090E068
:100EC00090932B0180932A010E94380360ED77E014
:100ED00080E090E00E94DC090E94C106219731F772
:100EE0000E94B302C0E4DFE10E94BD000E94F10055
:100EF00080912D01813081F483E090E090932B016B
:100F000080932A010E94380360ED77E080E090E052
:100F10000E94DC090E94C106219731F70E94C60297
:100F2000C0E4DFE1A5CF10922D0110922C011092A8
:100F30002701109226010E9443010E94B10060E93E
:100F400071E080E090E00E94DC090E94B70012C0CE
:100F50000E94BD000E94F10080912D01813051F46A
:100F60000E94380360ED77E080E090E00E94DC09A9
:100F70000E94330780912F01882351F308950E9426
:100F80009307089561E0809106010E94290B0E9459
:100F9000250364E670E080E090E00E94DC0960E0F8
:100FA000809106010E94290B0E944B0364E670E0C9
:100FB00080E090E00E94DC0961E0809106010E94DF
:100FC000290B0E94120364E670E080E090E00E942A
:100FD000DC0960E0809106010E94290B0E94380321
:100FE00064E670E080E090E00E94DC0961E08091BE
:100FF00006010E94290B0E94EC0264E670E080E08A
:1010000090E00E94DC0960E0809106010E94290BBB
:101010000E94250364E670E080E090E00E94DC0915
:1010200061E0809106010E94290B0E944B0364E657
:1010300070E080E090E00E94DC0960E080910601B1
:101040000E94290B0E94120364E670E080E090E0A9
:101050000E94DC0961E0809106010E94290B0E9438
:10106000380364E670E080E090E00E94DC0960E014
:10107000809106010E94290B0E94EC0261E08091A0
:1010800006010E94290B0E94250364E670E080E0BF
:1010900090E00E94DC0960E0809106010E94290B2B
:1010A0000E944B0364E670E080E090E00E94DC095F
:1010B00061E0809106010E94290B0E94120364E600
:1010C00070E080E090E00E94DC0960E08091060121
:1010D0000E94290B0E94380364E670E080E090E0F3
:1010E0000E94DC0961E0809106010E94290B0E94A8
:1010F000EC0264E670E080E090E00E94DC0960E0D1
:10110000809106010E94290B0E94250364E670E08D
:1011100080E090E00E94DC0961E0809106010E947D
:10112000290B0E944B0364E670E080E090E00E948F
:10113000DC0960E0809106010E94290B0E941203E5
:1011400064E670E080E090E00E94DC0961E080915C
:1011500006010E94290B0E94380364E670E080E0DB
:1011600090E00E94DC0960E0809106010E94290B5A
:101170000E944B0360E177E280E090E00E94DC098E
:101180000E9493070895CFEFD4E0DEBFCDBF0E9449
:101190000B0A0E9483000E94BF07FDCF08950895A7
:1011A000CB01BA010E94740B08950E94B50B9927D8
:1011B00008950E94C60B08950E94E50B0895862F9E
:1011C0000E942C0C0895CB010E94330C0895862FA9
:1011D0000E942C0C08950F931F938C016DE00E94C8
:1011E000DF086AE0C8010E94DF081F910F9108958F
:1011F0000F931F938C010E94DF08C8010E94EB0827
:101200001F910F9108950F931F938C010E94E30883
:10121000C8010E94EB081F910F9108950F931F932F
:101220008C010E94E708C8010E94EB081F910F91F2
:101230000895CB01BA013327442755270E94400C5B
:1012400008952AE00E94190908950F931F938C01B5
:101250000E942109C8010E94EB081F910F91089577
:10126000AB01662777270E94210908950F931F93EA
:101270008C010E943009C8010E94EB081F910F9158
:101280000895EF92FF920F931F93CF93DF93EC019A
:101290007A018B0177FF0BC06DE20E94DF08109589
:1012A0000095F094E094E11CF11C011D111D2AE051
:1012B000B801A701CE010E941909DF91CF911F91BA
:1012C0000F91FF90EF9008950F931F938C010E9450
:1012D0004109C8010E94EB081F910F910895211543
:1012E000310521F4642F0E94DF0808952A3031056A
:1012F00019F40E94410908950E94190908950F9355
:101300001F938C010E946F09C8010E94EB081F9176
:101310000F910895AB01662757FD6095762F0E94C7
:10132000410908950F931F938C010E948A09C801F7
:101330000E94EB081F910F910895089508951F9240
:101340000F920FB60F9211248F939F93AF93BF9379
:101350008091390190913A01A0913B01B0913C01FB
:101360000196A11DB11D8093390190933A01A0937C
:101370003B01B0933C01BF91AF919F918F910F9032
:101380000FBE0F901F9018956091390170913A012E
:1013900080913B0190913C0127E0660F771F881FE9
:1013A000991F2A95D1F72DE730E040E050E00E94E8
:1013B000170ECA01B9010895AF92BF92CF92DF9282
:1013C000EF92FF920F931F935B016C010E94C4097F
:1013D0007B018C010E94C4096E197F09800B910B5F
:1013E0006A157B058C059D05A8F31F910F91FF9051
:1013F000EF90DF90CF90BF90AF900895019751F09C
:10140000880F991F880F991F02972FB7F89401979B
:10141000F1F72FBF089578941092390110923A0194
:1014200010923B0110923C0184B5826084BD84B56A
:10143000816084BD85B5826085BD85B5816085BDCF
:10144000EEE6F0E0808181608083E1E8F0E0808179
:1014500082608083808181608083E0E8F0E0808129
:1014600081608083E1EBF0E0808184608083E0EB49
:10147000F0E0808181608083EAE7F0E08081846031
:10148000808380818260808380818160808380818D
:10149000806880831092C100089580930A010895A6
:1014A00090910A019295990F990F907C8F70982BCB
:1014B00090937C0080917A00806480937A00809180
:1014C0007A0086FDFCCF20917800809179009927E1
:1014D000982F88273327822B932B08951F93CF9320
:1014E000DF93182FEB0161E00E94C20AE12FFF2772
:1014F000E659FF4F8491833051F4809180008068D9
:1015000080938000D0938900C093880037C08430D6
:1015100051F480918000806280938000D0938B0092
:10152000C0938A002BC0813029F484B5806884BDC3
:10153000C7BD24C0823029F484B5806284BDC8BD93
:101540001DC0863041F48091B00080688093B00067
:10155000C093B30013C0873041F48091B000806223
:101560008093B000C093B40009C0C038D10514F412
:1015700060E001C061E0812F0E94290BDF91CF91D3
:101580001F910895282F3327C90182589F4FFC01CE
:1015900094912E563F4FF9018491882381F0E82FD2
:1015A000FF27E055FF4FE491FF27662329F4808150
:1015B00090958923808308958081892B8083089565
:1015C000482F5527CA0186599F4FFC012491CA0113
:1015D00082589F4FFC0194914E565F4FFA0134910F
:1015E0003323A1F1222331F1233021F480918000B3
:1015F0008F7705C0243031F4809180008F7D8093F7
:10160000800018C0213019F484B58F7704C02230CF
:1016100021F484B58F7D84BD0DC0263021F48091E6
:10162000B0008F7705C0273029F48091B0008F7DFE
:101630008093B000E32FFF27EA55FF4FE491FF2787
:101640008081892319F081E090E0089580E090E0A6
:101650000895482F5527CA0186599F4FFC012491B0
:10166000CA0182589F4FFC0194914E565F4FFA0178
:1016700034913323C1F1222331F1233021F48091BD
:1016800080008F7705C0243031F4809180008F7DF9
:101690008093800018C0213019F484B58F7704C07E
:1016A000223021F484B58F7D84BD0DC0263021F415
:1016B0008091B0008F7705C0273029F48091B00069
:1016C0008F7D8093B000E32FFF27E555FF4FE49116
:1016D000FF27662329F480819095892380830895CC
:1016E0008081892B80830895EF92FF920F931F933F
:1016F0007B018C0122E030E040E050E00E94390E96
:10170000205C3D4B404F5F4FCA01B901A8019701D2
:101710000E94390E2150304040405040BB2757FDB9
:10172000BA95A52F942F832F2F5F3F4F4F4F5F4FB9
:101730008093C50021502093C400E1ECF0E080814B
:1017400080618083808188608083808180688083DD
:101750001F910F91FF90EF900895982F8091C000F6
:1017600085FFFCCF9093C60008958091370190913A
:1017700038012091350130913601821B930B80583E
:101780009F4F60E870E00E94040E0895409135017B
:101790005091360180913701909138018417950757
:1017A00019F48FEF9FEF0895FA01E35CFE4F20815B
:1017B000CA01019660E870E00E94040E9093360121
:1017C00080933501822F992708958091350190915A
:1017D0003601909338018093370108951F920F923C
:1017E0000FB60F9211242F933F934F935F936F93F4
:1017F0007F938F939F93AF93BF93EF93FF9340910A
:10180000C600E0913701F0913801CF01019660E800
:1018100070E00E94040E9C01809135019091360188
:101820002817390739F0E35CFE4F408330933801C5
:1018300020933701FF91EF91BF91AF919F918F91CD
:101840007F916F915F914F913F912F910F900FBEBC
:101850000F901F90189508950E94AD0B08958AE08F
:101860000E942C0C0895CF93DF93EC0103C02196C6
:101870000E942C0C88818823D1F7DF91CF910895A5
:101880002F923F924F925F926F927F928F929F9290
:10189000AF92BF92CF92DF92EF92FF920F931F937E
:1018A000CF93DF93CDB7DEB7A0970FB6F894DEBF26
:1018B0000FBECDBF6B017C0119012A0161157105B5
:1018C0008105910521F480E30E942C0C4BC0662415
:1018D000772443015E010894A11CB11C8501060D0B
:1018E000171DC701B601A20191010E94170EF80150
:1018F00060830894611C711C811C911CC701B60196
:10190000A20191010E94170E69017A01211531058A
:101910004105510519F773010894E108F108EA0C33
:10192000FB1CAA24BB24650111C0F70180818A3009
:1019300010F4805D01C0895C0E942C0C0894A10801
:10194000B108C108D1080894E108F108882799274F
:10195000DC0186199709A809B909A816B906CA06AB
:10196000DB0619F7A0960FB6F894DEBF0FBECDBF09
:10197000DF91CF911F910F91FF90EF90DF90CF906B
:10198000BF90AF909F908F907F906F905F904F909F
:101990003F902F900895EF92FF920F931F937B013A
:1019A0008C0197FF0BC08DE20E942C0C10950095C6
:1019B000F094E094E11CF11C011D111D2AE030E0BF
:1019C00040E050E0C801B7010E94400C1F910F9108
:1019D000FF90EF90089520E130E040E050E00E9459
:1019E000400C089528E030E040E050E00E94400CB8
:1019F000089522E030E040E050E00E94400C08955D
:101A0000009711F00E94DA0D0895EF92FF920F9364
:101A10001F937B018C01611571058105910529F4E6
:101A200060E070E080E090E00CC00E94D50DAA2735
:101A300097FDA095BA2FBC01CD01A80197010E9486
:101A4000390E1F910F91FF90EF900895EF92FF9242
:101A50000F931F937B018C0162177307840795070F
:101A600064F4261B370B480B590BCA01B9010E94BD
:101A7000050DE60EF71E081F191FC801B7011F91BB
:101A80000F91FF90EF9008956F927F928F929F92A7
:101A9000AF92BF92CF92DF92EF92FF920F931F937C
:101AA000CF93DF93CDB7DEB739014A0129893A894F
:101AB0004B895C8966197709880999092A193B09B4
:101AC0004C095D090E94E50DE618F7080809190997
:101AD000A80197010E94390E2A0D3B1D4C1D5D1D6A
:101AE000CA01B901DF91CF911F910F91FF90EF9043
:101AF000DF90CF90BF90AF909F908F907F906F902E
:101B00000895AF92BF92CF92DF92EF92FF920F9320
:101B10001F93CF93DF93EC01E880F9800A811B814A
:101B2000C801B7012DE133EF41E050E00E94170EEC
:101B300027EA31E440E050E00E94E50D5B016C01D2
:101B4000C801B7012DE133EF41E050E00E94170ECC
:101B5000CA01B90124E13BE040E050E00E94E50DFC
:101B6000A61AB70AC80AD90A1A141B041C041D04B1
:101B700044F08FEF9FEFAFEFBFE7A80EB91ECA1E6C
:101B8000DB1EA882B982CA82DB82C5019F77DF9102
:101B9000CF911F910F91FF90EF90DF90CF90BF906A
:101BA000AF9008950E94810D08958BE091E00E940E
:101BB000810D0895AA27BB2780930B0190930C01F8
:101BC000A0930D01B0930E010895629FD001739F01
:101BD000F001829FE00DF11D649FE00DF11D929FC9
:101BE000F00D839FF00D749FF00D659FF00D992708
:101BF000729FB00DE11DF91F639FB00DE11DF91F2C
:101C0000BD01CF011124089597FB092E07260AD0A4
:101C100077FD04D049D006D000201AF47095619564
:101C20007F4F0895F6F7909581959F4F0895A1E213
:101C30001A2EAA1BBB1BFD010DC0AA1FBB1FEE1F46
:101C4000FF1FA217B307E407F50720F0A21BB30B91
:101C5000E40BF50B661F771F881F991F1A9469F70D
:101C600060957095809590959B01AC01BD01CF0169
:101C7000089597FB092E05260ED057FD04D0D7DF17
:101C80000AD0001C38F450954095309521953F4F6F
:101C90004F4F5F4F0895F6F7909580957095619539
:101CA0007F4F8F4F9F4F0895AA1BBB1B51E107C069
:101CB000AA1FBB1FA617B70710F0A61BB70B881FDC
:101CC000991F5A95A9F780959095BC01CD0108956B
:0C1CD000EE0FFF1F0590F491E02D099429
:101CDC000A000B00090003000700010100000000CE
:00000001FF
